:1000000020C03AC062C138C037C015C135C034C045
:1000100033C032C031C030C02FC02EC02DC001034C
:10002000000004000000000038000000000037005D
:10003000000000003600020202020202010204086F
:10004000102011241FBECFE5D2E0DEBFCDBF10E0EF
:10005000A0E6B0E0EAE5F6E002C005900D92A23617
:10006000B107D9F720E0A2E6B0E001C01D92A837A1
:10007000B207E1F7E2D1EFC2C3CFEFE3F0E0849142
:10008000E9E3F0E0E491EE2371F0F0E0EE0FFF1F02
:10009000E05DFF4FA591B491EC91E82381E090E001
:1000A00021F480E0089580E090E00895CF93DF93FD
:1000B00087FF07C08F7769F1813069F1823069F17C
:1000C00083E090E0FC01E45CFF4F24918A5C9F4F49
:1000D000FC0184918823D1F090E0880F991FFC01E6
:1000E000E65DFF4FA591B491FC01EC5DFF4FC5911A
:1000F000D491611114C09FB7F8948C91E22FE095D0
:100100008E238C932881E223E8839FBFDF91CF91D8
:10011000089585E0D6CF82E0D4CF84E0D2CF8FB7E8
:10012000F894EC91E22BEC938FBFF0CF662381F132
:10013000813A70F180EA90EA981B98BD91E08111B4
:1001400001C090E090936000E2E2F0E02491E0E4EE
:10015000F0E09491EAE3F0E0E491EE23C1F0222391
:1001600029F02130C9F42AB52F772ABDF0E0EE0F2F
:10017000FF1FEC5DFF4FA591B49181111EC08FB799
:10018000F8942C91E92FE095E223EC938FBF08952A
:10019000823088F680E0CFCF223019F42AB52F7D47
:1001A000E4CF233021F420B72F7D20BFDFCF2430D0
:1001B000E9F62CB52F7D2CBDD9CF8FB7F894EC91F3
:1001C000E92BE3CF81E087B987B187B9369A3699B1
:1001D000FECF84B165B1762F682F90E080E020EAF1
:1001E00030E040E050E0D7D120EA33E040E050E09A
:1001F000EBD120936A000895FF920F931F93CF9342
:10020000DF9304E710E0D0E0C0E0F801F1908F0147
:10021000CE01ABD1F81619F06F2DCE01AED12196DB
:10022000C430D10591F784E790E0DF91CF911F9121
:100230000F91FF9008951F920F920FB60F92112405
:100240002F933F938F939F93AF93BF9380917000B1
:1002500090917100A0917200B091730030916F0085
:1002600026E0230F2D3768F129E8230F0396A11DFF
:10027000B11D20936F008093700090937100A09344
:100280007200B093730080916B0090916C00A0910C
:100290006D00B0916E000196A11DB11D80936B00A1
:1002A00090936C00A0936D00B0936E00BF91AF91DE
:1002B0009F918F913F912F910F900FBE0F901F90A4
:1002C00018950296A11DB11DD4CF1F920F920FB6A3
:1002D0000F9211242F923F924F925F926F927F92D2
:1002E0008F929F92AF92BF92CF92DF92EF92FF9246
:1002F0000F931F932F933F934F935F936F937F932E
:100300008F939F93AF93BF93EF93FF93B6DE0197C5
:1003100009F458C08FB7F894409170005091710063
:1003200060917200709173008FBF1A012B019A01C6
:10033000AB0160E070E080E090E0A0906200B090DF
:100340006300C0906400D0906500E0906600F0907B
:100350006700009168001091690074D1283C310554
:10036000410551056105710581059105D9F0D0F070
:1003700084DE892B51F42FEF81EE94E021508040F0
:100380009040E1F700C00000F3CF80916000813021
:10039000D1F560E080E0CADE82E0809360001092D8
:1003A00077002ADF2092620030926300409264005E
:1003B00050926500109266001092670010926800DB
:1003C00010926900FF91EF91BF91AF919F918F9132
:1003D0007F916F915F914F913F912F911F910F915D
:1003E000FF90EF90DF90CF90BF90AF909F908F9055
:1003F0007F906F905F904F903F902F900F900FBE27
:100400000F901F901895DEDE80916A00833060F0B7
:1004100061E080EA8BDEEFEF23ED80E3E1502040E6
:100420008040E1F700C00000CDDE60E080916A000E
:100430007DDE81E080937700B4CF83E08ABD83BF07
:10044000789489B7826089BF80E48CBD8FEF8DBDC1
:1004500087EC80BF86E886B961E081E027DE61E055
:1004600084E024DE60E081E821DE60E083E81EDED7
:1004700081E28ABD89E083BF80EA89BD88BD90E0C2
:1004800080E073D08093740081E090E06ED0809320
:10049000750082E090E069D08093760083E090E080
:1004A00064D08093770081E090E090937500809312
:1004B0007400E3DD892BB1F42FEF81EE94E021503D
:1004C00080409040E1F700C00000D7DD892BA1F308
:1004D000809176008F5F80937600833010F01092C9
:1004E00076008ADE80917600813031F0823059F5D5
:1004F00080917700811127C060E080E017DE82E004
:10050000809360008BB780628BBFAB9A78948091A8
:100510006000823071F056DE60E080916A0006DE95
:100520002FEF84E39CE0215080409040E1F700C031
:1005300000002FEF80E792E0215080409040E1F7EB
:1005400000C00000E4CF3EDE80916A008330D0F22C
:1005500061E080EAEBDD2FEF83ED90E321508040F6
:100560009040E1F700C00000CDCFE199FECF9FBBE6
:100570008EBBE09A99278DB30895262FE199FECF7F
:100580001CBA9FBB8EBB2DBB0FB6F894E29AE19AC2
:100590000FBE01960895EE27FF27AA27BB2708C0A4
:1005A000A20FB31FE41FF51F220F331F441F551F57
:1005B000969587957795679598F37040A9F700977A
:1005C00099F7BD01CF010895052E97FB16F400940D
:1005D0000FD057FD05D014D007FC02D046F408C058
:1005E00050954095309521953F4F4F4F5F4F08955F
:1005F00090958095709561957F4F8F4F9F4F08958F
:10060000A1E21A2EAA1BBB1BFD010DC0AA1FBB1F16
:10061000EE1FFF1FA217B307E407F50720F0A21B88
:10062000B30BE40BF50B661F771F881F991F1A94F5
:1006300069F760957095809590959B01AC01BD011F
:10064000CF0108952A193B094C095D096E097F09FC
:0A065000800B910B0895F894FFCF82
:02065A0001009D
:00000001FF
